{
  "_format": "hh-sol-artifact-1",
  "contractName": "KudosTracker",
  "sourceName": "contracts/KudosTracker.sol",
  "abi": [
    {
      "anonymous": false,
      "inputs": [
        {
          "indexed": true,
          "internalType": "address",
          "name": "from",
          "type": "address"
        },
        {
          "indexed": true,
          "internalType": "address",
          "name": "to",
          "type": "address"
        },
        {
          "indexed": false,
          "internalType": "string",
          "name": "fromHandle",
          "type": "string"
        },
        {
          "indexed": false,
          "internalType": "string",
          "name": "toHandle",
          "type": "string"
        },
        {
          "indexed": false,
          "internalType": "string",
          "name": "tweetUrl",
          "type": "string"
        },
        {
          "indexed": false,
          "internalType": "uint256",
          "name": "timestamp",
          "type": "uint256"
        }
      ],
      "name": "KudosGiven",
      "type": "event"
    },
    {
      "anonymous": false,
      "inputs": [
        {
          "indexed": true,
          "internalType": "address",
          "name": "user",
          "type": "address"
        },
        {
          "indexed": false,
          "internalType": "bool",
          "name": "isPrivate",
          "type": "bool"
        }
      ],
      "name": "ProfilePrivacyUpdated",
      "type": "event"
    },
    {
      "anonymous": false,
      "inputs": [
        {
          "indexed": true,
          "internalType": "address",
          "name": "user",
          "type": "address"
        },
        {
          "indexed": false,
          "internalType": "string",
          "name": "xHandle",
          "type": "string"
        },
        {
          "indexed": false,
          "internalType": "uint256",
          "name": "timestamp",
          "type": "uint256"
        }
      ],
      "name": "UserDeleted",
      "type": "event"
    },
    {
      "anonymous": false,
      "inputs": [
        {
          "indexed": true,
          "internalType": "address",
          "name": "user",
          "type": "address"
        },
        {
          "indexed": false,
          "internalType": "string",
          "name": "xHandle",
          "type": "string"
        }
      ],
      "name": "UserDeletionCancelled",
      "type": "event"
    },
    {
      "anonymous": false,
      "inputs": [
        {
          "indexed": true,
          "internalType": "address",
          "name": "user",
          "type": "address"
        },
        {
          "indexed": false,
          "internalType": "string",
          "name": "xHandle",
          "type": "string"
        },
        {
          "indexed": false,
          "internalType": "uint256",
          "name": "timestamp",
          "type": "uint256"
        }
      ],
      "name": "UserDeletionRequested",
      "type": "event"
    },
    {
      "anonymous": false,
      "inputs": [
        {
          "indexed": true,
          "internalType": "address",
          "name": "user",
          "type": "address"
        },
        {
          "indexed": false,
          "internalType": "string",
          "name": "xHandle",
          "type": "string"
        },
        {
          "indexed": false,
          "internalType": "uint256",
          "name": "timestamp",
          "type": "uint256"
        }
      ],
      "name": "UserRegistered",
      "type": "event"
    },
    {
      "inputs": [],
      "name": "DELETION_GRACE_PERIOD",
      "outputs": [
        {
          "internalType": "uint256",
          "name": "",
          "type": "uint256"
        }
      ],
      "stateMutability": "view",
      "type": "function"
    },
    {
      "inputs": [],
      "name": "MAX_HANDLE_LENGTH",
      "outputs": [
        {
          "internalType": "uint256",
          "name": "",
          "type": "uint256"
        }
      ],
      "stateMutability": "view",
      "type": "function"
    },
    {
      "inputs": [],
      "name": "MIN_HANDLE_LENGTH",
      "outputs": [
        {
          "internalType": "uint256",
          "name": "",
          "type": "uint256"
        }
      ],
      "stateMutability": "view",
      "type": "function"
    },
    {
      "inputs": [],
      "name": "REREGISTRATION_COOLDOWN",
      "outputs": [
        {
          "internalType": "uint256",
          "name": "",
          "type": "uint256"
        }
      ],
      "stateMutability": "view",
      "type": "function"
    },
    {
      "inputs": [],
      "name": "cancelAccountDeletion",
      "outputs": [],
      "stateMutability": "nonpayable",
      "type": "function"
    },
    {
      "inputs": [
        {
          "internalType": "string",
          "name": "",
          "type": "string"
        }
      ],
      "name": "deletedHandles",
      "outputs": [
        {
          "internalType": "bool",
          "name": "",
          "type": "bool"
        }
      ],
      "stateMutability": "view",
      "type": "function"
    },
    {
      "inputs": [
        {
          "internalType": "address",
          "name": "_user",
          "type": "address"
        }
      ],
      "name": "executeAccountDeletion",
      "outputs": [],
      "stateMutability": "nonpayable",
      "type": "function"
    },
    {
      "inputs": [
        {
          "internalType": "address",
          "name": "_user",
          "type": "address"
        }
      ],
      "name": "getAccountStatus",
      "outputs": [
        {
          "internalType": "bool",
          "name": "isRegistered",
          "type": "bool"
        },
        {
          "internalType": "bool",
          "name": "isPendingDeletion",
          "type": "bool"
        },
        {
          "internalType": "uint256",
          "name": "deletionTime",
          "type": "uint256"
        },
        {
          "internalType": "bool",
          "name": "canReregister",
          "type": "bool"
        }
      ],
      "stateMutability": "view",
      "type": "function"
    },
    {
      "inputs": [],
      "name": "getKudosHistory",
      "outputs": [
        {
          "components": [
            {
              "internalType": "address",
              "name": "from",
              "type": "address"
            },
            {
              "internalType": "address",
              "name": "to",
              "type": "address"
            },
            {
              "internalType": "string",
              "name": "fromHandle",
              "type": "string"
            },
            {
              "internalType": "string",
              "name": "toHandle",
              "type": "string"
            },
            {
              "internalType": "uint256",
              "name": "timestamp",
              "type": "uint256"
            },
            {
              "internalType": "string",
              "name": "tweetUrl",
              "type": "string"
            }
          ],
          "internalType": "struct KudosTracker.KudosTransaction[]",
          "name": "",
          "type": "tuple[]"
        }
      ],
      "stateMutability": "view",
      "type": "function"
    },
    {
      "inputs": [],
      "name": "getKudosHistoryLength",
      "outputs": [
        {
          "internalType": "uint256",
          "name": "",
          "type": "uint256"
        }
      ],
      "stateMutability": "view",
      "type": "function"
    },
    {
      "inputs": [
        {
          "internalType": "uint256",
          "name": "_offset",
          "type": "uint256"
        },
        {
          "internalType": "uint256",
          "name": "_limit",
          "type": "uint256"
        }
      ],
      "name": "getKudosHistoryPage",
      "outputs": [
        {
          "components": [
            {
              "internalType": "address",
              "name": "from",
              "type": "address"
            },
            {
              "internalType": "address",
              "name": "to",
              "type": "address"
            },
            {
              "internalType": "string",
              "name": "fromHandle",
              "type": "string"
            },
            {
              "internalType": "string",
              "name": "toHandle",
              "type": "string"
            },
            {
              "internalType": "uint256",
              "name": "timestamp",
              "type": "uint256"
            },
            {
              "internalType": "string",
              "name": "tweetUrl",
              "type": "string"
            }
          ],
          "internalType": "struct KudosTracker.KudosTransaction[]",
          "name": "",
          "type": "tuple[]"
        }
      ],
      "stateMutability": "view",
      "type": "function"
    },
    {
      "inputs": [
        {
          "internalType": "uint256",
          "name": "_limit",
          "type": "uint256"
        }
      ],
      "name": "getLeaderboard",
      "outputs": [
        {
          "internalType": "string[]",
          "name": "handles",
          "type": "string[]"
        },
        {
          "internalType": "uint256[]",
          "name": "kudosReceived",
          "type": "uint256[]"
        },
        {
          "internalType": "address[]",
          "name": "addresses",
          "type": "address[]"
        }
      ],
      "stateMutability": "view",
      "type": "function"
    },
    {
      "inputs": [
        {
          "internalType": "address",
          "name": "_user",
          "type": "address"
        }
      ],
      "name": "getUserByAddress",
      "outputs": [
        {
          "components": [
            {
              "internalType": "string",
              "name": "xHandle",
              "type": "string"
            },
            {
              "internalType": "uint256",
              "name": "kudosReceived",
              "type": "uint256"
            },
            {
              "internalType": "uint256",
              "name": "kudosGiven",
              "type": "uint256"
            },
            {
              "internalType": "bool",
              "name": "isRegistered",
              "type": "bool"
            },
            {
              "internalType": "uint256",
              "name": "registeredAt",
              "type": "uint256"
            },
            {
              "internalType": "uint256",
              "name": "deletionRequestedAt",
              "type": "uint256"
            }
          ],
          "internalType": "struct KudosTracker.User",
          "name": "",
          "type": "tuple"
        }
      ],
      "stateMutability": "view",
      "type": "function"
    },
    {
      "inputs": [
        {
          "internalType": "string",
          "name": "_handle",
          "type": "string"
        }
      ],
      "name": "getUserByHandle",
      "outputs": [
        {
          "components": [
            {
              "internalType": "string",
              "name": "xHandle",
              "type": "string"
            },
            {
              "internalType": "uint256",
              "name": "kudosReceived",
              "type": "uint256"
            },
            {
              "internalType": "uint256",
              "name": "kudosGiven",
              "type": "uint256"
            },
            {
              "internalType": "bool",
              "name": "isRegistered",
              "type": "bool"
            },
            {
              "internalType": "uint256",
              "name": "registeredAt",
              "type": "uint256"
            },
            {
              "internalType": "uint256",
              "name": "deletionRequestedAt",
              "type": "uint256"
            }
          ],
          "internalType": "struct KudosTracker.User",
          "name": "",
          "type": "tuple"
        }
      ],
      "stateMutability": "view",
      "type": "function"
    },
    {
      "inputs": [
        {
          "internalType": "string",
          "name": "_handle",
          "type": "string"
        }
      ],
      "name": "getUserKudos",
      "outputs": [
        {
          "internalType": "uint256",
          "name": "",
          "type": "uint256"
        }
      ],
      "stateMutability": "view",
      "type": "function"
    },
    {
      "inputs": [
        {
          "internalType": "string",
          "name": "_toHandle",
          "type": "string"
        },
        {
          "internalType": "string",
          "name": "_tweetUrl",
          "type": "string"
        }
      ],
      "name": "giveKudos",
      "outputs": [],
      "stateMutability": "nonpayable",
      "type": "function"
    },
    {
      "inputs": [
        {
          "internalType": "string",
          "name": "",
          "type": "string"
        }
      ],
      "name": "handleToAddress",
      "outputs": [
        {
          "internalType": "address",
          "name": "",
          "type": "address"
        }
      ],
      "stateMutability": "view",
      "type": "function"
    },
    {
      "inputs": [
        {
          "internalType": "string",
          "name": "_handle",
          "type": "string"
        }
      ],
      "name": "isHandleAvailable",
      "outputs": [
        {
          "internalType": "bool",
          "name": "",
          "type": "bool"
        }
      ],
      "stateMutability": "view",
      "type": "function"
    },
    {
      "inputs": [
        {
          "internalType": "uint256",
          "name": "",
          "type": "uint256"
        }
      ],
      "name": "kudosHistory",
      "outputs": [
        {
          "internalType": "address",
          "name": "from",
          "type": "address"
        },
        {
          "internalType": "address",
          "name": "to",
          "type": "address"
        },
        {
          "internalType": "string",
          "name": "fromHandle",
          "type": "string"
        },
        {
          "internalType": "string",
          "name": "toHandle",
          "type": "string"
        },
        {
          "internalType": "uint256",
          "name": "timestamp",
          "type": "uint256"
        },
        {
          "internalType": "string",
          "name": "tweetUrl",
          "type": "string"
        }
      ],
      "stateMutability": "view",
      "type": "function"
    },
    {
      "inputs": [
        {
          "internalType": "address",
          "name": "",
          "type": "address"
        }
      ],
      "name": "lastDeletionTime",
      "outputs": [
        {
          "internalType": "uint256",
          "name": "",
          "type": "uint256"
        }
      ],
      "stateMutability": "view",
      "type": "function"
    },
    {
      "inputs": [
        {
          "internalType": "address",
          "name": "",
          "type": "address"
        }
      ],
      "name": "privateProfiles",
      "outputs": [
        {
          "internalType": "bool",
          "name": "",
          "type": "bool"
        }
      ],
      "stateMutability": "view",
      "type": "function"
    },
    {
      "inputs": [
        {
          "internalType": "string",
          "name": "",
          "type": "string"
        }
      ],
      "name": "processedTweets",
      "outputs": [
        {
          "internalType": "bool",
          "name": "",
          "type": "bool"
        }
      ],
      "stateMutability": "view",
      "type": "function"
    },
    {
      "inputs": [
        {
          "internalType": "string",
          "name": "_xHandle",
          "type": "string"
        }
      ],
      "name": "registerUser",
      "outputs": [],
      "stateMutability": "nonpayable",
      "type": "function"
    },
    {
      "inputs": [],
      "name": "requestAccountDeletion",
      "outputs": [],
      "stateMutability": "nonpayable",
      "type": "function"
    },
    {
      "inputs": [
        {
          "internalType": "bool",
          "name": "_isPrivate",
          "type": "bool"
        }
      ],
      "name": "setProfilePrivacy",
      "outputs": [],
      "stateMutability": "nonpayable",
      "type": "function"
    },
    {
      "inputs": [
        {
          "internalType": "address",
          "name": "",
          "type": "address"
        }
      ],
      "name": "users",
      "outputs": [
        {
          "internalType": "string",
          "name": "xHandle",
          "type": "string"
        },
        {
          "internalType": "uint256",
          "name": "kudosReceived",
          "type": "uint256"
        },
        {
          "internalType": "uint256",
          "name": "kudosGiven",
          "type": "uint256"
        },
        {
          "internalType": "bool",
          "name": "isRegistered",
          "type": "bool"
        },
        {
          "internalType": "uint256",
          "name": "registeredAt",
          "type": "uint256"
        },
        {
          "internalType": "uint256",
          "name": "deletionRequestedAt",
          "type": "uint256"
        }
      ],
      "stateMutability": "view",
      "type": "function"
    }
  ],
  "bytecode": "0x608060405234801561001057600080fd5b5061564480620000216000396000f3fe608060405234801561001057600080fd5b506004361061018e5760003560e01c806388ea7d3c116100de578063b281976111610097578063d47fc1a311610071578063d47fc1a3146104c9578063dadfd4e3146104f9578063eeb817d714610517578063fd4fa05a146105475761018e565b8063b28197611461045f578063b9daf0a31461048f578063c8aeda1f146104ab5761018e565b806388ea7d3c1461035e5780638c1efee11461037c5780638dbda662146103ac578063a34b46fe146103dc578063a87430ba1461040e578063ae47ad89146104435761018e565b806336059e0e1161014b57806369c212f61161012557806369c212f6146102ea5780636f78ce0b1461031a578063704f1b9414610338578063722f7b8b146103545761018e565b806336059e0e146102a657806345b8be09146102c25780635a5c823a146102cc5761018e565b8063177b75ca14610193578063181876b0146101c35780632426183b146101f357806325401155146102115780632596d8f9146102415780632bb4ce2d14610276575b600080fd5b6101ad60048036038101906101a89190613e86565b61057a565b6040516101ba919061400b565b60405180910390f35b6101dd60048036038101906101d89190613e86565b61081f565b6040516101ea919061406e565b60405180910390f35b6101fb610868565b6040516102089190614098565b60405180910390f35b61022b60048036038101906102269190613e86565b61086f565b60405161023891906140c2565b60405180910390f35b61025b60048036038101906102569190614109565b6108a5565b60405161026d96959493929190614180565b60405180910390f35b610290600480360381019061028b9190614222565b610ac9565b60405161029d91906140c2565b60405180910390f35b6102c060048036038101906102bb9190614222565b610ae9565b005b6102ca610f3f565b005b6102d46111ad565b6040516102e19190614098565b60405180910390f35b61030460048036038101906102ff9190614222565b6111b4565b604051610311919061400b565b60405180910390f35b610322611434565b60405161032f9190614098565b60405180910390f35b610352600480360381019061034d9190613e86565b611439565b005b61035c61190e565b005b610366611af7565b60405161037391906143b7565b60405180910390f35b61039660048036038101906103919190613e86565b611dc2565b6040516103a391906140c2565b60405180910390f35b6103c660048036038101906103c19190613e86565b611e7e565b6040516103d391906140c2565b60405180910390f35b6103f660048036038101906103f19190614109565b611eb4565b604051610405939291906145f9565b60405180910390f35b61042860048036038101906104239190614222565b612942565b60405161043a96959493929190614645565b60405180910390f35b61045d600480360381019061045891906146ad565b612a13565b005b61047960048036038101906104749190613e86565b6131bb565b6040516104869190614098565b60405180910390f35b6104a960048036038101906104a49190614751565b6132b8565b005b6104b3613472565b6040516104c09190614098565b60405180910390f35b6104e360048036038101906104de919061477e565b613477565b6040516104f091906143b7565b60405180910390f35b61050161385a565b60405161050e9190614098565b60405180910390f35b610531600480360381019061052c9190614222565b613867565b60405161053e9190614098565b60405180910390f35b610561600480360381019061055c9190614222565b61387f565b60405161057194939291906147be565b60405180910390f35b610582613c35565b6000600183604051610594919061483f565b908152602001604051809103902060009054906101000a900473ffffffffffffffffffffffffffffffffffffffff169050600073ffffffffffffffffffffffffffffffffffffffff168173ffffffffffffffffffffffffffffffffffffffff1603610634576040517f08c379a000000000000000000000000000000000000000000000000000000000815260040161062b906148a2565b60405180910390fd5b600560008273ffffffffffffffffffffffffffffffffffffffff1673ffffffffffffffffffffffffffffffffffffffff16815260200190815260200160002060009054906101000a900460ff1680156106b957508073ffffffffffffffffffffffffffffffffffffffff163373ffffffffffffffffffffffffffffffffffffffff1614155b156106f9576040517f08c379a00000000000000000000000000000000000000000000000000000000081526004016106f09061490e565b60405180910390fd5b6000808273ffffffffffffffffffffffffffffffffffffffff1673ffffffffffffffffffffffffffffffffffffffff1681526020019081526020016000206040518060c00160405290816000820180546107529061495d565b80601f016020809104026020016040519081016040528092919081815260200182805461077e9061495d565b80156107cb5780601f106107a0576101008083540402835291602001916107cb565b820191906000526020600020905b8154815290600101906020018083116107ae57829003601f168201915b5050505050815260200160018201548152602001600282015481526020016003820160009054906101000a900460ff1615151515815260200160048201548152602001600582015481525050915050919050565b6001818051602081018201805184825260208301602085012081835280955050505050506000915054906101000a900473ffffffffffffffffffffffffffffffffffffffff1681565b62093a8081565b6002818051602081018201805184825260208301602085012081835280955050505050506000915054906101000a900460ff1681565b600681815481106108b557600080fd5b90600052602060002090600602016000915090508060000160009054906101000a900473ffffffffffffffffffffffffffffffffffffffff16908060010160009054906101000a900473ffffffffffffffffffffffffffffffffffffffff16908060020180546109249061495d565b80601f01602080910402602001604051908101604052809291908181526020018280546109509061495d565b801561099d5780601f106109725761010080835404028352916020019161099d565b820191906000526020600020905b81548152906001019060200180831161098057829003601f168201915b5050505050908060030180546109b29061495d565b80601f01602080910402602001604051908101604052809291908181526020018280546109de9061495d565b8015610a2b5780601f10610a0057610100808354040283529160200191610a2b565b820191906000526020600020905b815481529060010190602001808311610a0e57829003601f168201915b505050505090806004015490806005018054610a469061495d565b80601f0160208091040260200160405190810160405280929190818152602001828054610a729061495d565b8015610abf5780601f10610a9457610100808354040283529160200191610abf565b820191906000526020600020905b815481529060010190602001808311610aa257829003601f168201915b5050505050905086565b60056020528060005260406000206000915054906101000a900460ff1681565b6000808273ffffffffffffffffffffffffffffffffffffffff1673ffffffffffffffffffffffffffffffffffffffff16815260200190815260200160002060030160009054906101000a900460ff16610b77576040517f08c379a0000000000000000000000000000000000000000000000000000000008152600401610b6e906149da565b60405180910390fd5b60008060008373ffffffffffffffffffffffffffffffffffffffff1673ffffffffffffffffffffffffffffffffffffffff1681526020019081526020016000206005015411610bfb576040517f08c379a0000000000000000000000000000000000000000000000000000000008152600401610bf290614a46565b60405180910390fd5b62093a806000808373ffffffffffffffffffffffffffffffffffffffff1673ffffffffffffffffffffffffffffffffffffffff16815260200190815260200160002060050154610c4b9190614a95565b421015610c8d576040517f08c379a0000000000000000000000000000000000000000000000000000000008152600401610c8490614b15565b60405180910390fd5b60008060008373ffffffffffffffffffffffffffffffffffffffff1673ffffffffffffffffffffffffffffffffffffffff1681526020019081526020016000206000018054610cdb9061495d565b80601f0160208091040260200160405190810160405280929190818152602001828054610d079061495d565b8015610d545780601f10610d2957610100808354040283529160200191610d54565b820191906000526020600020905b815481529060010190602001808311610d3757829003601f168201915b505050505090506001600382604051610d6d919061483f565b908152602001604051809103902060006101000a81548160ff02191690831515021790555042600460008473ffffffffffffffffffffffffffffffffffffffff1673ffffffffffffffffffffffffffffffffffffffff16815260200190815260200160002081905550600181604051610de6919061483f565b908152602001604051809103902060006101000a81549073ffffffffffffffffffffffffffffffffffffffff02191690556000808373ffffffffffffffffffffffffffffffffffffffff1673ffffffffffffffffffffffffffffffffffffffff16815260200190815260200160002060008082016000610e669190613c6d565b600182016000905560028201600090556003820160006101000a81549060ff0219169055600482016000905560058201600090555050600560008373ffffffffffffffffffffffffffffffffffffffff1673ffffffffffffffffffffffffffffffffffffffff16815260200190815260200160002060006101000a81549060ff02191690558173ffffffffffffffffffffffffffffffffffffffff167f4c91e7c01fe23a08e75ba243a015228ac4a7074d0f7a826e5a16e4712dabdfa38242604051610f33929190614b35565b60405180910390a25050565b6000803373ffffffffffffffffffffffffffffffffffffffff1673ffffffffffffffffffffffffffffffffffffffff16815260200190815260200160002060030160009054906101000a900460ff16610fcd576040517f08c379a0000000000000000000000000000000000000000000000000000000008152600401610fc4906149da565b60405180910390fd5b60008060003373ffffffffffffffffffffffffffffffffffffffff1673ffffffffffffffffffffffffffffffffffffffff1681526020019081526020016000206005015414611051576040517f08c379a000000000000000000000000000000000000000000000000000000000815260040161104890614bb1565b60405180910390fd5b60008060003373ffffffffffffffffffffffffffffffffffffffff1673ffffffffffffffffffffffffffffffffffffffff16815260200190815260200160002060050154146110d5576040517f08c379a00000000000000000000000000000000000000000000000000000000081526004016110cc90614c1d565b60405180910390fd5b426000803373ffffffffffffffffffffffffffffffffffffffff1673ffffffffffffffffffffffffffffffffffffffff168152602001908152602001600020600501819055503373ffffffffffffffffffffffffffffffffffffffff167f5aa165aaf366219a8f128b00c992b278e1eea66ddbf14e068ec60c1b435479b06000803373ffffffffffffffffffffffffffffffffffffffff1673ffffffffffffffffffffffffffffffffffffffff168152602001908152602001600020600001426040516111a3929190614cd6565b60405180910390a2565b62278d0081565b6111bc613c35565b6000808373ffffffffffffffffffffffffffffffffffffffff1673ffffffffffffffffffffffffffffffffffffffff16815260200190815260200160002060030160009054906101000a900460ff1661124a576040517f08c379a0000000000000000000000000000000000000000000000000000000008152600401611241906149da565b60405180910390fd5b600560008373ffffffffffffffffffffffffffffffffffffffff1673ffffffffffffffffffffffffffffffffffffffff16815260200190815260200160002060009054906101000a900460ff1680156112cf57508173ffffffffffffffffffffffffffffffffffffffff163373ffffffffffffffffffffffffffffffffffffffff1614155b1561130f576040517f08c379a00000000000000000000000000000000000000000000000000000000081526004016113069061490e565b60405180910390fd5b6000808373ffffffffffffffffffffffffffffffffffffffff1673ffffffffffffffffffffffffffffffffffffffff1681526020019081526020016000206040518060c00160405290816000820180546113689061495d565b80601f01602080910402602001604051908101604052809291908181526020018280546113949061495d565b80156113e15780601f106113b6576101008083540402835291602001916113e1565b820191906000526020600020905b8154815290600101906020018083116113c457829003601f168201915b5050505050815260200160018201548152602001600282015481526020016003820160009054906101000a900460ff16151515158152602001600482015481526020016005820154815250509050919050565b600f81565b60038151101561147e576040517f08c379a000000000000000000000000000000000000000000000000000000000815260040161147590614d52565b60405180910390fd5b600f815111156114c3576040517f08c379a00000000000000000000000000000000000000000000000000000000081526004016114ba90614dbe565b60405180910390fd5b6114cc81613a7f565b61150b576040517f08c379a000000000000000000000000000000000000000000000000000000000815260040161150290614e2a565b60405180910390fd5b6000803373ffffffffffffffffffffffffffffffffffffffff1673ffffffffffffffffffffffffffffffffffffffff16815260200190815260200160002060030160009054906101000a900460ff161561159a576040517f08c379a000000000000000000000000000000000000000000000000000000000815260040161159190614e96565b60405180910390fd5b600073ffffffffffffffffffffffffffffffffffffffff166001826040516115c2919061483f565b908152602001604051809103902060009054906101000a900473ffffffffffffffffffffffffffffffffffffffff1673ffffffffffffffffffffffffffffffffffffffff1614611647576040517f08c379a000000000000000000000000000000000000000000000000000000000815260040161163e90614f02565b60405180910390fd5b600381604051611657919061483f565b908152602001604051809103902060009054906101000a900460ff16156116b3576040517f08c379a00000000000000000000000000000000000000000000000000000000081526004016116aa90614f6e565b60405180910390fd5b6000600460003373ffffffffffffffffffffffffffffffffffffffff1673ffffffffffffffffffffffffffffffffffffffff16815260200190815260200160002054111561178c5762278d00600460003373ffffffffffffffffffffffffffffffffffffffff1673ffffffffffffffffffffffffffffffffffffffff168152602001908152602001600020546117499190614a95565b42101561178b576040517f08c379a000000000000000000000000000000000000000000000000000000000815260040161178290615000565b60405180910390fd5b5b6040518060c00160405280828152602001600081526020016000815260200160011515815260200142815260200160008152506000803373ffffffffffffffffffffffffffffffffffffffff1673ffffffffffffffffffffffffffffffffffffffff168152602001908152602001600020600082015181600001908161181291906151b7565b50602082015181600101556040820151816002015560608201518160030160006101000a81548160ff0219169083151502179055506080820151816004015560a082015181600501559050503360018260405161186f919061483f565b908152602001604051809103902060006101000a81548173ffffffffffffffffffffffffffffffffffffffff021916908373ffffffffffffffffffffffffffffffffffffffff1602179055503373ffffffffffffffffffffffffffffffffffffffff167f89105a1c6a3c2fbd471255c66a31ccab604af5697f67d7e2e9a0028c5e4dbd918242604051611903929190614b35565b60405180910390a250565b6000803373ffffffffffffffffffffffffffffffffffffffff1673ffffffffffffffffffffffffffffffffffffffff16815260200190815260200160002060030160009054906101000a900460ff1661199c576040517f08c379a0000000000000000000000000000000000000000000000000000000008152600401611993906149da565b60405180910390fd5b60008060003373ffffffffffffffffffffffffffffffffffffffff1673ffffffffffffffffffffffffffffffffffffffff1681526020019081526020016000206005015411611a20576040517f08c379a0000000000000000000000000000000000000000000000000000000008152600401611a1790614a46565b60405180910390fd5b60008060003373ffffffffffffffffffffffffffffffffffffffff1673ffffffffffffffffffffffffffffffffffffffff168152602001908152602001600020600501819055503373ffffffffffffffffffffffffffffffffffffffff167f4b59c04ca04c395030ac9256d323311c6586a765a3b333baddad655ffa2b51dd6000803373ffffffffffffffffffffffffffffffffffffffff1673ffffffffffffffffffffffffffffffffffffffff168152602001908152602001600020600001604051611aed9190615289565b60405180910390a2565b60606006805480602002602001604051908101604052809291908181526020016000905b82821015611db957838290600052602060002090600602016040518060c00160405290816000820160009054906101000a900473ffffffffffffffffffffffffffffffffffffffff1673ffffffffffffffffffffffffffffffffffffffff1673ffffffffffffffffffffffffffffffffffffffff1681526020016001820160009054906101000a900473ffffffffffffffffffffffffffffffffffffffff1673ffffffffffffffffffffffffffffffffffffffff1673ffffffffffffffffffffffffffffffffffffffff168152602001600282018054611bfa9061495d565b80601f0160208091040260200160405190810160405280929190818152602001828054611c269061495d565b8015611c735780601f10611c4857610100808354040283529160200191611c73565b820191906000526020600020905b815481529060010190602001808311611c5657829003601f168201915b50505050508152602001600382018054611c8c9061495d565b80601f0160208091040260200160405190810160405280929190818152602001828054611cb89061495d565b8015611d055780601f10611cda57610100808354040283529160200191611d05565b820191906000526020600020905b815481529060010190602001808311611ce857829003601f168201915b5050505050815260200160048201548152602001600582018054611d289061495d565b80601f0160208091040260200160405190810160405280929190818152602001828054611d549061495d565b8015611da15780601f10611d7657610100808354040283529160200191611da1565b820191906000526020600020905b815481529060010190602001808311611d8457829003601f168201915b50505050508152505081526020019060010190611b1b565b50505050905090565b60008073ffffffffffffffffffffffffffffffffffffffff16600183604051611deb919061483f565b908152602001604051809103902060009054906101000a900473ffffffffffffffffffffffffffffffffffffffff1673ffffffffffffffffffffffffffffffffffffffff16148015611e665750600382604051611e48919061483f565b908152602001604051809103902060009054906101000a900460ff16155b8015611e775750611e7682613a7f565b5b9050919050565b6003818051602081018201805184825260208301602085012081835280955050505050506000915054906101000a900460ff1681565b60608060606000600680549050905060008103611fba57600067ffffffffffffffff811115611ee657611ee5613d5b565b5b604051908082528060200260200182016040528015611f1957816020015b6060815260200190600190039081611f045790505b50600067ffffffffffffffff811115611f3557611f34613d5b565b5b604051908082528060200260200182016040528015611f635781602001602082028036833780820191505090505b50600067ffffffffffffffff811115611f7f57611f7e613d5b565b5b604051908082528060200260200182016040528015611fad5781602001602082028036833780820191505090505b509350935093505061293b565b6000600282611fc991906152ab565b67ffffffffffffffff811115611fe257611fe1613d5b565b5b6040519080825280602002602001820160405280156120105781602001602082028036833780820191505090505b5090506000805b8381101561244c57600060068281548110612035576120346152ed565b5b906000526020600020906006020160000160009054906101000a900473ffffffffffffffffffffffffffffffffffffffff16905060006006838154811061207f5761207e6152ed565b5b906000526020600020906006020160010160009054906101000a900473ffffffffffffffffffffffffffffffffffffffff16905060008060005b86811015612178578473ffffffffffffffffffffffffffffffffffffffff168882815181106120eb576120ea6152ed565b5b602002602001015173ffffffffffffffffffffffffffffffffffffffff160361211357600192505b8373ffffffffffffffffffffffffffffffffffffffff1688828151811061213d5761213c6152ed565b5b602002602001015173ffffffffffffffffffffffffffffffffffffffff160361216557600191505b80806121709061531c565b9150506120b9565b50811580156121d257506000808573ffffffffffffffffffffffffffffffffffffffff1673ffffffffffffffffffffffffffffffffffffffff16815260200190815260200160002060030160009054906101000a900460ff165b801561221f575060008060008673ffffffffffffffffffffffffffffffffffffffff1673ffffffffffffffffffffffffffffffffffffffff16815260200190815260200160002060050154145b80156122755750600560008573ffffffffffffffffffffffffffffffffffffffff1673ffffffffffffffffffffffffffffffffffffffff16815260200190815260200160002060009054906101000a900460ff16155b156122d7578387878151811061228e5761228d6152ed565b5b602002602001019073ffffffffffffffffffffffffffffffffffffffff16908173ffffffffffffffffffffffffffffffffffffffff168152505085806122d39061531c565b9650505b8015801561233057506000808473ffffffffffffffffffffffffffffffffffffffff1673ffffffffffffffffffffffffffffffffffffffff16815260200190815260200160002060030160009054906101000a900460ff165b801561237d575060008060008573ffffffffffffffffffffffffffffffffffffffff1673ffffffffffffffffffffffffffffffffffffffff16815260200190815260200160002060050154145b80156123d35750600560008473ffffffffffffffffffffffffffffffffffffffff1673ffffffffffffffffffffffffffffffffffffffff16815260200190815260200160002060009054906101000a900460ff16155b1561243557828787815181106123ec576123eb6152ed565b5b602002602001019073ffffffffffffffffffffffffffffffffffffffff16908173ffffffffffffffffffffffffffffffffffffffff168152505085806124319061531c565b9650505b5050505080806124449061531c565b915050612017565b5060005b8160018261245e9190614a95565b10156126665760005b82600183836124769190614a95565b6124809190614a95565b101561265257600080856001846124979190614a95565b815181106124a8576124a76152ed565b5b602002602001015173ffffffffffffffffffffffffffffffffffffffff1673ffffffffffffffffffffffffffffffffffffffff16815260200190815260200160002060010154600080868481518110612504576125036152ed565b5b602002602001015173ffffffffffffffffffffffffffffffffffffffff1673ffffffffffffffffffffffffffffffffffffffff16815260200190815260200160002060010154101561263f576000848281518110612565576125646152ed565b5b602002602001015190508460018361257d9190614a95565b8151811061258e5761258d6152ed565b5b60200260200101518583815181106125a9576125a86152ed565b5b602002602001019073ffffffffffffffffffffffffffffffffffffffff16908173ffffffffffffffffffffffffffffffffffffffff168152505080856001846125f29190614a95565b81518110612603576126026152ed565b5b602002602001019073ffffffffffffffffffffffffffffffffffffffff16908173ffffffffffffffffffffffffffffffffffffffff1681525050505b808061264a9061531c565b915050612467565b50808061265e9061531c565b915050612450565b5060008188106126765781612678565b875b90508067ffffffffffffffff81111561269457612693613d5b565b5b6040519080825280602002602001820160405280156126c757816020015b60608152602001906001900390816126b25790505b5096508067ffffffffffffffff8111156126e4576126e3613d5b565b5b6040519080825280602002602001820160405280156127125781602001602082028036833780820191505090505b5095508067ffffffffffffffff81111561272f5761272e613d5b565b5b60405190808252806020026020018201604052801561275d5781602001602082028036833780820191505090505b50945060005b818110156129355760008482815181106127805761277f6152ed565b5b602002602001015190506000808273ffffffffffffffffffffffffffffffffffffffff1673ffffffffffffffffffffffffffffffffffffffff16815260200190815260200160002060000180546127d69061495d565b80601f01602080910402602001604051908101604052809291908181526020018280546128029061495d565b801561284f5780601f106128245761010080835404028352916020019161284f565b820191906000526020600020905b81548152906001019060200180831161283257829003601f168201915b5050505050898381518110612867576128666152ed565b5b60200260200101819052506000808273ffffffffffffffffffffffffffffffffffffffff1673ffffffffffffffffffffffffffffffffffffffff168152602001908152602001600020600101548883815181106128c7576128c66152ed565b5b602002602001018181525050808783815181106128e7576128e66152ed565b5b602002602001019073ffffffffffffffffffffffffffffffffffffffff16908173ffffffffffffffffffffffffffffffffffffffff168152505050808061292d9061531c565b915050612763565b50505050505b9193909250565b60006020528060005260406000206000915090508060000180546129659061495d565b80601f01602080910402602001604051908101604052809291908181526020018280546129919061495d565b80156129de5780601f106129b3576101008083540402835291602001916129de565b820191906000526020600020905b8154815290600101906020018083116129c157829003601f168201915b5050505050908060010154908060020154908060030160009054906101000a900460ff16908060040154908060050154905086565b6000803373ffffffffffffffffffffffffffffffffffffffff1673ffffffffffffffffffffffffffffffffffffffff16815260200190815260200160002060030160009054906101000a900460ff16612aa1576040517f08c379a0000000000000000000000000000000000000000000000000000000008152600401612a98906149da565b60405180910390fd5b60008060003373ffffffffffffffffffffffffffffffffffffffff1673ffffffffffffffffffffffffffffffffffffffff1681526020019081526020016000206005015414612b25576040517f08c379a0000000000000000000000000000000000000000000000000000000008152600401612b1c90614bb1565b60405180910390fd5b60008060003373ffffffffffffffffffffffffffffffffffffffff1673ffffffffffffffffffffffffffffffffffffffff1681526020019081526020016000206005015414612ba9576040517f08c379a0000000000000000000000000000000000000000000000000000000008152600401612ba090614bb1565b60405180910390fd5b6000815111612bed576040517f08c379a0000000000000000000000000000000000000000000000000000000008152600401612be4906153b0565b60405180910390fd5b600281604051612bfd919061483f565b908152602001604051809103902060009054906101000a900460ff1615612c59576040517f08c379a0000000000000000000000000000000000000000000000000000000008152600401612c509061541c565b60405180910390fd5b6000600183604051612c6b919061483f565b908152602001604051809103902060009054906101000a900473ffffffffffffffffffffffffffffffffffffffff169050600073ffffffffffffffffffffffffffffffffffffffff168173ffffffffffffffffffffffffffffffffffffffff1603612d0b576040517f08c379a0000000000000000000000000000000000000000000000000000000008152600401612d0290615488565b60405180910390fd5b3373ffffffffffffffffffffffffffffffffffffffff168173ffffffffffffffffffffffffffffffffffffffff1603612d79576040517f08c379a0000000000000000000000000000000000000000000000000000000008152600401612d70906154f4565b60405180910390fd5b60008060008373ffffffffffffffffffffffffffffffffffffffff1673ffffffffffffffffffffffffffffffffffffffff1681526020019081526020016000206005015414612dfd576040517f08c379a0000000000000000000000000000000000000000000000000000000008152600401612df490615560565b60405180910390fd5b6000803373ffffffffffffffffffffffffffffffffffffffff1673ffffffffffffffffffffffffffffffffffffffff1681526020019081526020016000206002016000815480929190612e4f9061531c565b91905055506000808273ffffffffffffffffffffffffffffffffffffffff1673ffffffffffffffffffffffffffffffffffffffff1681526020019081526020016000206001016000815480929190612ea69061531c565b919050555060066040518060c001604052803373ffffffffffffffffffffffffffffffffffffffff1681526020018373ffffffffffffffffffffffffffffffffffffffff1681526020016000803373ffffffffffffffffffffffffffffffffffffffff1673ffffffffffffffffffffffffffffffffffffffff1681526020019081526020016000206000018054612f3c9061495d565b80601f0160208091040260200160405190810160405280929190818152602001828054612f689061495d565b8015612fb55780601f10612f8a57610100808354040283529160200191612fb5565b820191906000526020600020905b815481529060010190602001808311612f9857829003601f168201915b5050505050815260200185815260200142815260200184815250908060018154018082558091505060019003906000526020600020906006020160009091909190915060008201518160000160006101000a81548173ffffffffffffffffffffffffffffffffffffffff021916908373ffffffffffffffffffffffffffffffffffffffff16021790555060208201518160010160006101000a81548173ffffffffffffffffffffffffffffffffffffffff021916908373ffffffffffffffffffffffffffffffffffffffff160217905550604082015181600201908161309b91906151b7565b5060608201518160030190816130b191906151b7565b506080820151816004015560a08201518160050190816130d191906151b7565b50505060016002836040516130e6919061483f565b908152602001604051809103902060006101000a81548160ff0219169083151502179055508073ffffffffffffffffffffffffffffffffffffffff163373ffffffffffffffffffffffffffffffffffffffff167ff6f3235466663ccc251455b10b39148d94bdabd70ac6738ab28996d6c3899fcd6000803373ffffffffffffffffffffffffffffffffffffffff1673ffffffffffffffffffffffffffffffffffffffff1681526020019081526020016000206000018686426040516131ae9493929190615580565b60405180910390a3505050565b6000806001836040516131ce919061483f565b908152602001604051809103902060009054906101000a900473ffffffffffffffffffffffffffffffffffffffff169050600073ffffffffffffffffffffffffffffffffffffffff168173ffffffffffffffffffffffffffffffffffffffff160361326e576040517f08c379a0000000000000000000000000000000000000000000000000000000008152600401613265906148a2565b60405180910390fd5b6000808273ffffffffffffffffffffffffffffffffffffffff1673ffffffffffffffffffffffffffffffffffffffff16815260200190815260200160002060010154915050919050565b6000803373ffffffffffffffffffffffffffffffffffffffff1673ffffffffffffffffffffffffffffffffffffffff16815260200190815260200160002060030160009054906101000a900460ff16613346576040517f08c379a000000000000000000000000000000000000000000000000000000000815260040161333d906149da565b60405180910390fd5b60008060003373ffffffffffffffffffffffffffffffffffffffff1673ffffffffffffffffffffffffffffffffffffffff16815260200190815260200160002060050154146133ca576040517f08c379a00000000000000000000000000000000000000000000000000000000081526004016133c190614bb1565b60405180910390fd5b80600560003373ffffffffffffffffffffffffffffffffffffffff1673ffffffffffffffffffffffffffffffffffffffff16815260200190815260200160002060006101000a81548160ff0219169083151502179055503373ffffffffffffffffffffffffffffffffffffffff167fc3b9a9899c50bd10693b5fe19758060e8d874e647d501ef576966e702caeee158260405161346791906140c2565b60405180910390a250565b600381565b6060600060068054905090508084106134e757600067ffffffffffffffff8111156134a5576134a4613d5b565b5b6040519080825280602002602001820160405280156134de57816020015b6134cb613cad565b8152602001906001900390816134c35790505b50915050613854565b600083856134f59190614a95565b905081811115613503578190505b6000858261351191906155da565b905060008167ffffffffffffffff81111561352f5761352e613d5b565b5b60405190808252806020026020018201604052801561356857816020015b613555613cad565b81526020019060019003908161354d5790505b50905060005b8281101561384b57600681896135849190614a95565b81548110613595576135946152ed565b5b90600052602060002090600602016040518060c00160405290816000820160009054906101000a900473ffffffffffffffffffffffffffffffffffffffff1673ffffffffffffffffffffffffffffffffffffffff1673ffffffffffffffffffffffffffffffffffffffff1681526020016001820160009054906101000a900473ffffffffffffffffffffffffffffffffffffffff1673ffffffffffffffffffffffffffffffffffffffff1673ffffffffffffffffffffffffffffffffffffffff16815260200160028201805461366a9061495d565b80601f01602080910402602001604051908101604052809291908181526020018280546136969061495d565b80156136e35780601f106136b8576101008083540402835291602001916136e3565b820191906000526020600020905b8154815290600101906020018083116136c657829003601f168201915b505050505081526020016003820180546136fc9061495d565b80601f01602080910402602001604051908101604052809291908181526020018280546137289061495d565b80156137755780601f1061374a57610100808354040283529160200191613775565b820191906000526020600020905b81548152906001019060200180831161375857829003601f168201915b50505050508152602001600482015481526020016005820180546137989061495d565b80601f01602080910402602001604051908101604052809291908181526020018280546137c49061495d565b80156138115780601f106137e657610100808354040283529160200191613811565b820191906000526020600020905b8154815290600101906020018083116137f457829003601f168201915b50505050508152505082828151811061382d5761382c6152ed565b5b602002602001018190525080806138439061531c565b91505061356e565b50809450505050505b92915050565b6000600680549050905090565b60046020528060005260406000206000915090505481565b60008060008060008060008773ffffffffffffffffffffffffffffffffffffffff1673ffffffffffffffffffffffffffffffffffffffff1681526020019081526020016000206040518060c00160405290816000820180546138e09061495d565b80601f016020809104026020016040519081016040528092919081815260200182805461390c9061495d565b80156139595780601f1061392e57610100808354040283529160200191613959565b820191906000526020600020905b81548152906001019060200180831161393c57829003601f168201915b5050505050815260200160018201548152602001600282015481526020016003820160009054906101000a900460ff161515151581526020016004820154815260200160058201548152505090508060600151945060008160a00151119350836139c45760006139d8565b62093a808160a001516139d79190614a95565b5b92506000600460008873ffffffffffffffffffffffffffffffffffffffff1673ffffffffffffffffffffffffffffffffffffffff168152602001908152602001600020541480613a75575062278d00600460008873ffffffffffffffffffffffffffffffffffffffff1673ffffffffffffffffffffffffffffffffffffffff16815260200190815260200160002054613a719190614a95565b4210155b9150509193509193565b60008082905060005b8151811015613c29576000828281518110613aa657613aa56152ed565b5b602001015160f81c60f81b9050603060f81b817effffffffffffffffffffffffffffffffffffffffffffffffffffffffffffff191610158015613b0f5750603960f81b817effffffffffffffffffffffffffffffffffffffffffffffffffffffffffffff191611155b80613b725750604160f81b817effffffffffffffffffffffffffffffffffffffffffffffffffffffffffffff191610158015613b715750605a60f81b817effffffffffffffffffffffffffffffffffffffffffffffffffffffffffffff191611155b5b80613bd55750606160f81b817effffffffffffffffffffffffffffffffffffffffffffffffffffffffffffff191610158015613bd45750607a60f81b817effffffffffffffffffffffffffffffffffffffffffffffffffffffffffffff191611155b5b80613c055750605f60f81b817effffffffffffffffffffffffffffffffffffffffffffffffffffffffffffff1916145b613c155760009350505050613c30565b508080613c219061531c565b915050613a88565b5060019150505b919050565b6040518060c0016040528060608152602001600081526020016000815260200160001515815260200160008152602001600081525090565b508054613c799061495d565b6000825580601f10613c8b5750613caa565b601f016020900490600052602060002090810190613ca99190613d0f565b5b50565b6040518060c00160405280600073ffffffffffffffffffffffffffffffffffffffff168152602001600073ffffffffffffffffffffffffffffffffffffffff168152602001606081526020016060815260200160008152602001606081525090565b5b80821115613d28576000816000905550600101613d10565b5090565b6000604051905090565b600080fd5b600080fd5b600080fd5b600080fd5b6000601f19601f8301169050919050565b7f4e487b7100000000000000000000000000000000000000000000000000000000600052604160045260246000fd5b613d9382613d4a565b810181811067ffffffffffffffff82111715613db257613db1613d5b565b5b80604052505050565b6000613dc5613d2c565b9050613dd18282613d8a565b919050565b600067ffffffffffffffff821115613df157613df0613d5b565b5b613dfa82613d4a565b9050602081019050919050565b82818337600083830152505050565b6000613e29613e2484613dd6565b613dbb565b905082815260208101848484011115613e4557613e44613d45565b5b613e50848285613e07565b509392505050565b600082601f830112613e6d57613e6c613d40565b5b8135613e7d848260208601613e16565b91505092915050565b600060208284031215613e9c57613e9b613d36565b5b600082013567ffffffffffffffff811115613eba57613eb9613d3b565b5b613ec684828501613e58565b91505092915050565b600081519050919050565b600082825260208201905092915050565b60005b83811015613f09578082015181840152602081019050613eee565b60008484015250505050565b6000613f2082613ecf565b613f2a8185613eda565b9350613f3a818560208601613eeb565b613f4381613d4a565b840191505092915050565b6000819050919050565b613f6181613f4e565b82525050565b60008115159050919050565b613f7c81613f67565b82525050565b600060c0830160008301518482036000860152613f9f8282613f15565b9150506020830151613fb46020860182613f58565b506040830151613fc76040860182613f58565b506060830151613fda6060860182613f73565b506080830151613fed6080860182613f58565b5060a083015161400060a0860182613f58565b508091505092915050565b600060208201905081810360008301526140258184613f82565b905092915050565b600073ffffffffffffffffffffffffffffffffffffffff82169050919050565b60006140588261402d565b9050919050565b6140688161404d565b82525050565b6000602082019050614083600083018461405f565b92915050565b61409281613f4e565b82525050565b60006020820190506140ad6000830184614089565b92915050565b6140bc81613f67565b82525050565b60006020820190506140d760008301846140b3565b92915050565b6140e681613f4e565b81146140f157600080fd5b50565b600081359050614103816140dd565b92915050565b60006020828403121561411f5761411e613d36565b5b600061412d848285016140f4565b91505092915050565b600082825260208201905092915050565b600061415282613ecf565b61415c8185614136565b935061416c818560208601613eeb565b61417581613d4a565b840191505092915050565b600060c082019050614195600083018961405f565b6141a2602083018861405f565b81810360408301526141b48187614147565b905081810360608301526141c88186614147565b90506141d76080830185614089565b81810360a08301526141e98184614147565b9050979650505050505050565b6141ff8161404d565b811461420a57600080fd5b50565b60008135905061421c816141f6565b92915050565b60006020828403121561423857614237613d36565b5b60006142468482850161420d565b91505092915050565b600081519050919050565b600082825260208201905092915050565b6000819050602082019050919050565b6142848161404d565b82525050565b600060c0830160008301516142a2600086018261427b565b5060208301516142b5602086018261427b565b50604083015184820360408601526142cd8282613f15565b915050606083015184820360608601526142e78282613f15565b91505060808301516142fc6080860182613f58565b5060a083015184820360a08601526143148282613f15565b9150508091505092915050565b600061432d838361428a565b905092915050565b6000602082019050919050565b600061434d8261424f565b614357818561425a565b9350836020820285016143698561426b565b8060005b858110156143a557848403895281516143868582614321565b945061439183614335565b925060208a0199505060018101905061436d565b50829750879550505050505092915050565b600060208201905081810360008301526143d18184614342565b905092915050565b600081519050919050565b600082825260208201905092915050565b6000819050602082019050919050565b60006144118383613f15565b905092915050565b6000602082019050919050565b6000614431826143d9565b61443b81856143e4565b93508360208202850161444d856143f5565b8060005b85811015614489578484038952815161446a8582614405565b945061447583614419565b925060208a01995050600181019050614451565b50829750879550505050505092915050565b600081519050919050565b600082825260208201905092915050565b6000819050602082019050919050565b60006144d38383613f58565b60208301905092915050565b6000602082019050919050565b60006144f78261449b565b61450181856144a6565b935061450c836144b7565b8060005b8381101561453d57815161452488826144c7565b975061452f836144df565b925050600181019050614510565b5085935050505092915050565b600081519050919050565b600082825260208201905092915050565b6000819050602082019050919050565b6000614582838361427b565b60208301905092915050565b6000602082019050919050565b60006145a68261454a565b6145b08185614555565b93506145bb83614566565b8060005b838110156145ec5781516145d38882614576565b97506145de8361458e565b9250506001810190506145bf565b5085935050505092915050565b600060608201905081810360008301526146138186614426565b9050818103602083015261462781856144ec565b9050818103604083015261463b818461459b565b9050949350505050565b600060c082019050818103600083015261465f8189614147565b905061466e6020830188614089565b61467b6040830187614089565b61468860608301866140b3565b6146956080830185614089565b6146a260a0830184614089565b979650505050505050565b600080604083850312156146c4576146c3613d36565b5b600083013567ffffffffffffffff8111156146e2576146e1613d3b565b5b6146ee85828601613e58565b925050602083013567ffffffffffffffff81111561470f5761470e613d3b565b5b61471b85828601613e58565b9150509250929050565b61472e81613f67565b811461473957600080fd5b50565b60008135905061474b81614725565b92915050565b60006020828403121561476757614766613d36565b5b60006147758482850161473c565b91505092915050565b6000806040838503121561479557614794613d36565b5b60006147a3858286016140f4565b92505060206147b4858286016140f4565b9150509250929050565b60006080820190506147d360008301876140b3565b6147e060208301866140b3565b6147ed6040830185614089565b6147fa60608301846140b3565b95945050505050565b600081905092915050565b600061481982613ecf565b6148238185614803565b9350614833818560208601613eeb565b80840191505092915050565b600061484b828461480e565b915081905092915050565b7f55736572206e6f7420666f756e64000000000000000000000000000000000000600082015250565b600061488c600e83614136565b915061489782614856565b602082019050919050565b600060208201905081810360008301526148bb8161487f565b9050919050565b7f50726f66696c6520697320707269766174650000000000000000000000000000600082015250565b60006148f8601283614136565b9150614903826148c2565b602082019050919050565b60006020820190508181036000830152614927816148eb565b9050919050565b7f4e487b7100000000000000000000000000000000000000000000000000000000600052602260045260246000fd5b6000600282049050600182168061497557607f821691505b6020821081036149885761498761492e565b5b50919050565b7f55736572206e6f74207265676973746572656400000000000000000000000000600082015250565b60006149c4601383614136565b91506149cf8261498e565b602082019050919050565b600060208201905081810360008301526149f3816149b7565b9050919050565b7f4e6f2064656c6574696f6e20726571756573742070656e64696e670000000000600082015250565b6000614a30601b83614136565b9150614a3b826149fa565b602082019050919050565b60006020820190508181036000830152614a5f81614a23565b9050919050565b7f4e487b7100000000000000000000000000000000000000000000000000000000600052601160045260246000fd5b6000614aa082613f4e565b9150614aab83613f4e565b9250828201905080821115614ac357614ac2614a66565b5b92915050565b7f477261636520706572696f64206e6f7420657870697265640000000000000000600082015250565b6000614aff601883614136565b9150614b0a82614ac9565b602082019050919050565b60006020820190508181036000830152614b2e81614af2565b9050919050565b60006040820190508181036000830152614b4f8185614147565b9050614b5e6020830184614089565b9392505050565b7f4163636f756e742070656e64696e672064656c6574696f6e0000000000000000600082015250565b6000614b9b601883614136565b9150614ba682614b65565b602082019050919050565b60006020820190508181036000830152614bca81614b8e565b9050919050565b7f44656c6574696f6e20616c726561647920726571756573746564000000000000600082015250565b6000614c07601a83614136565b9150614c1282614bd1565b602082019050919050565b60006020820190508181036000830152614c3681614bfa565b9050919050565b60008190508160005260206000209050919050565b60008154614c5f8161495d565b614c698186614136565b94506001821660008114614c845760018114614c9a57614ccd565b60ff198316865281151560200286019350614ccd565b614ca385614c3d565b60005b83811015614cc557815481890152600182019150602081019050614ca6565b808801955050505b50505092915050565b60006040820190508181036000830152614cf08185614c52565b9050614cff6020830184614089565b9392505050565b7f48616e646c6520746f6f2073686f727400000000000000000000000000000000600082015250565b6000614d3c601083614136565b9150614d4782614d06565b602082019050919050565b60006020820190508181036000830152614d6b81614d2f565b9050919050565b7f48616e646c6520746f6f206c6f6e670000000000000000000000000000000000600082015250565b6000614da8600f83614136565b9150614db382614d72565b602082019050919050565b60006020820190508181036000830152614dd781614d9b565b9050919050565b7f496e76616c69642068616e646c6520666f726d61740000000000000000000000600082015250565b6000614e14601583614136565b9150614e1f82614dde565b602082019050919050565b60006020820190508181036000830152614e4381614e07565b9050919050565b7f5573657220616c72656164792072656769737465726564000000000000000000600082015250565b6000614e80601783614136565b9150614e8b82614e4a565b602082019050919050565b60006020820190508181036000830152614eaf81614e73565b9050919050565b7f48616e646c6520616c72656164792074616b656e000000000000000000000000600082015250565b6000614eec601483614136565b9150614ef782614eb6565b602082019050919050565b60006020820190508181036000830152614f1b81614edf565b9050919050565b7f48616e646c65207065726d616e656e746c792072657469726564000000000000600082015250565b6000614f58601a83614136565b9150614f6382614f22565b602082019050919050565b60006020820190508181036000830152614f8781614f4b565b9050919050565b7f5265726567697374726174696f6e20636f6f6c646f776e20706572696f64206160008201527f6374697665000000000000000000000000000000000000000000000000000000602082015250565b6000614fea602583614136565b9150614ff582614f8e565b604082019050919050565b6000602082019050818103600083015261501981614fdd565b9050919050565b60006020601f8301049050919050565b600082821b905092915050565b60006008830261506d7fffffffffffffffffffffffffffffffffffffffffffffffffffffffffffffffff82615030565b6150778683615030565b95508019841693508086168417925050509392505050565b6000819050919050565b60006150b46150af6150aa84613f4e565b61508f565b613f4e565b9050919050565b6000819050919050565b6150ce83615099565b6150e26150da826150bb565b84845461503d565b825550505050565b600090565b6150f76150ea565b6151028184846150c5565b505050565b5b818110156151265761511b6000826150ef565b600181019050615108565b5050565b601f82111561516b5761513c81614c3d565b61514584615020565b81016020851015615154578190505b61516861516085615020565b830182615107565b50505b505050565b600082821c905092915050565b600061518e60001984600802615170565b1980831691505092915050565b60006151a7838361517d565b9150826002028217905092915050565b6151c082613ecf565b67ffffffffffffffff8111156151d9576151d8613d5b565b5b6151e3825461495d565b6151ee82828561512a565b600060209050601f831160018114615221576000841561520f578287015190505b615219858261519b565b865550615281565b601f19841661522f86614c3d565b60005b8281101561525757848901518255600182019150602085019450602081019050615232565b868310156152745784890151615270601f89168261517d565b8355505b6001600288020188555050505b505050505050565b600060208201905081810360008301526152a38184614c52565b905092915050565b60006152b682613f4e565b91506152c183613f4e565b92508282026152cf81613f4e565b915082820484148315176152e6576152e5614a66565b5b5092915050565b7f4e487b7100000000000000000000000000000000000000000000000000000000600052603260045260246000fd5b600061532782613f4e565b91507fffffffffffffffffffffffffffffffffffffffffffffffffffffffffffffffff820361535957615358614a66565b5b600182019050919050565b7f54776565742055524c2072657175697265640000000000000000000000000000600082015250565b600061539a601283614136565b91506153a582615364565b602082019050919050565b600060208201905081810360008301526153c98161538d565b9050919050565b7f547765657420616c72656164792070726f636573736564000000000000000000600082015250565b6000615406601783614136565b9150615411826153d0565b602082019050919050565b60006020820190508181036000830152615435816153f9565b9050919050565b7f526563697069656e74206e6f7420726567697374657265640000000000000000600082015250565b6000615472601883614136565b915061547d8261543c565b602082019050919050565b600060208201905081810360008301526154a181615465565b9050919050565b7f43616e6e6f742067697665206b75646f7320746f20796f757273656c66000000600082015250565b60006154de601d83614136565b91506154e9826154a8565b602082019050919050565b6000602082019050818103600083015261550d816154d1565b9050919050565b7f526563697069656e742070656e64696e672064656c6574696f6e000000000000600082015250565b600061554a601a83614136565b915061555582615514565b602082019050919050565b600060208201905081810360008301526155798161553d565b9050919050565b6000608082019050818103600083015261559a8187614c52565b905081810360208301526155ae8186614147565b905081810360408301526155c28185614147565b90506155d16060830184614089565b95945050505050565b60006155e582613f4e565b91506155f083613f4e565b925082820390508181111561560857615607614a66565b5b9291505056fea2646970667358221220f4d8f74e558729479312fcc897a769e39331326de53e5ad590df16539cae857f64736f6c63430008130033",
  "linkReferences": {},
  "deployedLinkReferences": {}
}